{"project/contracts/GBBAllocationInscription.sol":{"GBBAllocationInscription":{"abi":[{"inputs":[],"stateMutability":"nonpayable","type":"constructor"},{"anonymous":false,"inputs":[{"indexed":true,"internalType":"address","name":"buyer","type":"address"},{"indexed":false,"internalType":"uint256","name":"amount","type":"uint256"},{"indexed":false,"internalType":"string","name":"dataURI","type":"string"}],"name":"AllocationInscribed","type":"event"},{"anonymous":false,"inputs":[{"indexed":true,"internalType":"address","name":"account","type":"address"}],"name":"MinterAdded","type":"event"},{"anonymous":false,"inputs":[{"indexed":true,"internalType":"address","name":"account","type":"address"}],"name":"MinterRemoved","type":"event"},{"inputs":[{"internalType":"address","name":"account","type":"address"}],"name":"addMinter","outputs":[],"stateMutability":"nonpayable","type":"function"},{"inputs":[{"internalType":"address","name":"","type":"address"}],"name":"isMinter","outputs":[{"internalType":"bool","name":"","type":"bool"}],"stateMutability":"view","type":"function"},{"inputs":[{"internalType":"address","name":"buyer","type":"address"},{"internalType":"uint256","name":"amount","type":"uint256"},{"internalType":"string","name":"terms","type":"string"},{"internalType":"string","name":"agentInfo","type":"string"},{"internalType":"string","name":"commissionInfo","type":"string"},{"internalType":"string","name":"paymentType","type":"string"}],"name":"issueAllocation","outputs":[],"stateMutability":"nonpayable","type":"function"},{"inputs":[],"name":"owner","outputs":[{"internalType":"address","name":"","type":"address"}],"stateMutability":"view","type":"function"},{"inputs":[{"internalType":"address","name":"account","type":"address"}],"name":"removeMinter","outputs":[],"stateMutability":"nonpayable","type":"function"}],"evm":{"bytecode":{"linkReferences":{},"object":"608060405234801561000f575f80fd5b50335f806101000a81548173ffffffffffffffffffffffffffffffffffffffff021916908373ffffffffffffffffffffffffffffffffffffffff1602179055506117cf8061005c5f395ff3fe608060405234801561000f575f80fd5b5060043610610055575f3560e01c80633092afd5146100595780634cd1645c146100755780638da5cb5b14610091578063983b2d56146100af578063aa271e1a146100cb575b5f80fd5b610073600480360381019061006e91906109b0565b6100fb565b005b61008f600480360381019061008a9190610b4a565b610222565b005b610099610446565b6040516100a69190610c52565b60405180910390f35b6100c960048036038101906100c491906109b0565b610469565b005b6100e560048036038101906100e091906109b0565b610590565b6040516100f29190610c85565b60405180910390f35b5f8054906101000a900473ffffffffffffffffffffffffffffffffffffffff1673ffffffffffffffffffffffffffffffffffffffff163373ffffffffffffffffffffffffffffffffffffffff1614610188576040517f08c379a000000000000000000000000000000000000000000000000000000000815260040161017f90610cf8565b60405180910390fd5b5f60015f8373ffffffffffffffffffffffffffffffffffffffff1673ffffffffffffffffffffffffffffffffffffffff1681526020019081526020015f205f6101000a81548160ff0219169083151502179055508073ffffffffffffffffffffffffffffffffffffffff167fe94479a9f7e1952cc78f2d6baab678adc1b772d936c6583def489e524cb6669260405160405180910390a250565b5f8054906101000a900473ffffffffffffffffffffffffffffffffffffffff1673ffffffffffffffffffffffffffffffffffffffff163373ffffffffffffffffffffffffffffffffffffffff1614806102c1575060015f3373ffffffffffffffffffffffffffffffffffffffff1673ffffffffffffffffffffffffffffffffffffffff1681526020019081526020015f205f9054906101000a900460ff165b610300576040517f08c379a00000000000000000000000000000000000000000000000000000000081526004016102f790610d60565b60405180910390fd5b5f73ffffffffffffffffffffffffffffffffffffffff168673ffffffffffffffffffffffffffffffffffffffff160361036e576040517f08c379a000000000000000000000000000000000000000000000000000000000815260040161036590610dc8565b60405180910390fd5b5f85116103b0576040517f08c379a00000000000000000000000000000000000000000000000000000000081526004016103a790610e30565b60405180910390fd5b5f6103ba876105ad565b6103c387610782565b868686866040516020016103dc969594939291906111c8565b60405160208183030381529060405290508673ffffffffffffffffffffffffffffffffffffffff167fca0f5c4e95260cca386a446e6554b30fd638991b929d7516609ba6b945494f8e87836040516104359291906112be565b60405180910390a250505050505050565b5f8054906101000a900473ffffffffffffffffffffffffffffffffffffffff1681565b5f8054906101000a900473ffffffffffffffffffffffffffffffffffffffff1673ffffffffffffffffffffffffffffffffffffffff163373ffffffffffffffffffffffffffffffffffffffff16146104f6576040517f08c379a00000000000000000000000000000000000000000000000000000000081526004016104ed90610cf8565b60405180910390fd5b6001805f8373ffffffffffffffffffffffffffffffffffffffff1673ffffffffffffffffffffffffffffffffffffffff1681526020019081526020015f205f6101000a81548160ff0219169083151502179055508073ffffffffffffffffffffffffffffffffffffffff167f6ae172837ea30b801fbfcdd4108aa1d5bf8ff775444fd70256b44e6bf3dfc3f660405160405180910390a250565b6001602052805f5260405f205f915054906101000a900460ff1681565b60605f602867ffffffffffffffff8111156105cb576105ca610a26565b5b6040519080825280601f01601f1916602001820160405280156105fd5781602001600182028036833780820191505090505b5090505f5b6014811015610759575f8160136106199190611319565b6008610625919061134c565b600261063191906114bc565b8573ffffffffffffffffffffffffffffffffffffffff166106529190611533565b60f81b90505f60108260f81c610668919061156f565b60f81b90505f8160f81c601061067e919061159f565b8360f81c61068c91906115db565b60f81b905061069a82610900565b858560026106a8919061134c565b815181106106b9576106b861160f565b5b60200101907effffffffffffffffffffffffffffffffffffffffffffffffffffffffffffff191690815f1a9053506106f081610900565b856001866002610700919061134c565b61070a919061163c565b8151811061071b5761071a61160f565b5b60200101907effffffffffffffffffffffffffffffffffffffffffffffffffffffffffffff191690815f1a9053505050508080600101915050610602565b508060405160200161076b91906116fd565b604051602081830303815290604052915050919050565b60605f82036107c8576040518060400160405280600181526020017f300000000000000000000000000000000000000000000000000000000000000081525090506108fb565b5f8290505f5b5f82146107f75780806107e09061171e565b915050600a826107f09190611533565b91506107ce565b5f8167ffffffffffffffff81111561081257610811610a26565b5b6040519080825280601f01601f1916602001820160405280156108445781602001600182028036833780820191505090505b5090505f8290505b5f86146108f3576001816108609190611319565b90505f600a80886108719190611533565b61087b919061134c565b876108869190611319565b60306108929190611765565b90505f8160f81b9050808484815181106108af576108ae61160f565b5b60200101907effffffffffffffffffffffffffffffffffffffffffffffffffffffffffffff191690815f1a905350600a886108ea9190611533565b9750505061084c565b819450505050505b919050565b5f600a8260f81c60ff16101561092a5760308260f81c6109209190611765565b60f81b9050610940565b60578260f81c61093a9190611765565b60f81b90505b919050565b5f604051905090565b5f80fd5b5f80fd5b5f73ffffffffffffffffffffffffffffffffffffffff82169050919050565b5f61097f82610956565b9050919050565b61098f81610975565b8114610999575f80fd5b50565b5f813590506109aa81610986565b92915050565b5f602082840312156109c5576109c461094e565b5b5f6109d28482850161099c565b91505092915050565b5f819050919050565b6109ed816109db565b81146109f7575f80fd5b50565b5f81359050610a08816109e4565b92915050565b5f80fd5b5f80fd5b5f601f19601f8301169050919050565b7f4e487b71000000000000000000000000000000000000000000000000000000005f52604160045260245ffd5b610a5c82610a16565b810181811067ffffffffffffffff82111715610a7b57610a7a610a26565b5b80604052505050565b5f610a8d610945565b9050610a998282610a53565b919050565b5f67ffffffffffffffff821115610ab857610ab7610a26565b5b610ac182610a16565b9050602081019050919050565b828183375f83830152505050565b5f610aee610ae984610a9e565b610a84565b905082815260208101848484011115610b0a57610b09610a12565b5b610b15848285610ace565b509392505050565b5f82601f830112610b3157610b30610a0e565b5b8135610b41848260208601610adc565b91505092915050565b5f805f805f8060c08789031215610b6457610b6361094e565b5b5f610b7189828a0161099c565b9650506020610b8289828a016109fa565b955050604087013567ffffffffffffffff811115610ba357610ba2610952565b5b610baf89828a01610b1d565b945050606087013567ffffffffffffffff811115610bd057610bcf610952565b5b610bdc89828a01610b1d565b935050608087013567ffffffffffffffff811115610bfd57610bfc610952565b5b610c0989828a01610b1d565b92505060a087013567ffffffffffffffff811115610c2a57610c29610952565b5b610c3689828a01610b1d565b9150509295509295509295565b610c4c81610975565b82525050565b5f602082019050610c655f830184610c43565b92915050565b5f8115159050919050565b610c7f81610c6b565b82525050565b5f602082019050610c985f830184610c76565b92915050565b5f82825260208201905092915050565b7f43616c6c6572206973206e6f7420746865206f776e65720000000000000000005f82015250565b5f610ce2601783610c9e565b9150610ced82610cae565b602082019050919050565b5f6020820190508181035f830152610d0f81610cd6565b9050919050565b7f43616c6c6572206973206e6f742061206d696e746572000000000000000000005f82015250565b5f610d4a601683610c9e565b9150610d5582610d16565b602082019050919050565b5f6020820190508181035f830152610d7781610d3e565b9050919050565b7f496e76616c6964206275796572206164647265737300000000000000000000005f82015250565b5f610db2601583610c9e565b9150610dbd82610d7e565b602082019050919050565b5f6020820190508181035f830152610ddf81610da6565b9050919050565b7f416d6f756e74206d7573742062652067726561746572207468616e207a65726f5f82015250565b5f610e1a602083610c9e565b9150610e2582610de6565b602082019050919050565b5f6020820190508181035f830152610e4781610e0e565b9050919050565b5f81905092915050565b7f646174613a6170706c69636174696f6e2f6a736f6e2c7b2270223a22476f6c645f8201527f6261636b626f6e642d55534447422d616c6c6f636174696f6e222c226f70223a60208201527f226d696e74222c226275796572223a2200000000000000000000000000000000604082015250565b5f610ed8605083610e4e565b9150610ee382610e58565b605082019050919050565b5f81519050919050565b5f5b83811015610f15578082015181840152602081019050610efa565b5f8484015250505050565b5f610f2a82610eee565b610f348185610e4e565b9350610f44818560208601610ef8565b80840191505092915050565b7f222c22616d6f756e74223a2200000000000000000000000000000000000000005f82015250565b5f610f84600c83610e4e565b9150610f8f82610f50565b600c82019050919050565b7f222c227465726d73223a220000000000000000000000000000000000000000005f82015250565b5f610fce600b83610e4e565b9150610fd982610f9a565b600b82019050919050565b7f222c226167656e74496e666f223a2200000000000000000000000000000000005f82015250565b5f611018600f83610e4e565b915061102382610fe4565b600f82019050919050565b7f222c22636f6d6d697373696f6e496e666f223a220000000000000000000000005f82015250565b5f611062601483610e4e565b915061106d8261102e565b601482019050919050565b7f222c227061796d656e7454797065223a220000000000000000000000000000005f82015250565b5f6110ac601183610e4e565b91506110b782611078565b601182019050919050565b7f222c226c6567616c446973636c6f73757265223a225468697320746f6b656e205f8201527f726570726573656e7473206120636f6e747261637420726967687420746f206960208201527f6e76656e746f72792e2054686973206973206e6f74206120736563757269747960408201527f206f7220646572697661746976652e222c000000000000000000000000000000606082015250565b5f611168607183610e4e565b9150611173826110c2565b607182019050919050565b7f227d0000000000000000000000000000000000000000000000000000000000005f82015250565b5f6111b2600283610e4e565b91506111bd8261117e565b600282019050919050565b5f6111d282610ecc565b91506111de8289610f20565b91506111e982610f78565b91506111f58288610f20565b915061120082610fc2565b915061120c8287610f20565b91506112178261100c565b91506112238286610f20565b915061122e82611056565b915061123a8285610f20565b9150611245826110a0565b91506112518284610f20565b915061125c8261115c565b9150611267826111a6565b9150819050979650505050505050565b611280816109db565b82525050565b5f61129082610eee565b61129a8185610c9e565b93506112aa818560208601610ef8565b6112b381610a16565b840191505092915050565b5f6040820190506112d15f830185611277565b81810360208301526112e38184611286565b90509392505050565b7f4e487b71000000000000000000000000000000000000000000000000000000005f52601160045260245ffd5b5f611323826109db565b915061132e836109db565b9250828203905081811115611346576113456112ec565b5b92915050565b5f611356826109db565b9150611361836109db565b925082820261136f816109db565b91508282048414831517611386576113856112ec565b5b5092915050565b5f8160011c9050919050565b5f808291508390505b60018511156113e2578086048111156113be576113bd6112ec565b5b60018516156113cd5780820291505b80810290506113db8561138d565b94506113a2565b94509492505050565b5f826113fa57600190506114b5565b81611407575f90506114b5565b816001811461141d576002811461142757611456565b60019150506114b5565b60ff841115611439576114386112ec565b5b8360020a9150848211156114505761144f6112ec565b5b506114b5565b5060208310610133831016604e8410600b841016171561148b5782820a905083811115611486576114856112ec565b5b6114b5565b6114988484846001611399565b925090508184048111156114af576114ae6112ec565b5b81810290505b9392505050565b5f6114c6826109db565b91506114d1836109db565b92506114fe7fffffffffffffffffffffffffffffffffffffffffffffffffffffffffffffffff84846113eb565b905092915050565b7f4e487b71000000000000000000000000000000000000000000000000000000005f52601260045260245ffd5b5f61153d826109db565b9150611548836109db565b92508261155857611557611506565b5b828204905092915050565b5f60ff82169050919050565b5f61157982611563565b915061158483611563565b92508261159457611593611506565b5b828204905092915050565b5f6115a982611563565b91506115b483611563565b92508282026115c281611563565b91508082146115d4576115d36112ec565b5b5092915050565b5f6115e582611563565b91506115f083611563565b9250828203905060ff811115611609576116086112ec565b5b92915050565b7f4e487b71000000000000000000000000000000000000000000000000000000005f52603260045260245ffd5b5f611646826109db565b9150611651836109db565b9250828201905080821115611669576116686112ec565b5b92915050565b7f30780000000000000000000000000000000000000000000000000000000000005f82015250565b5f6116a3600283610e4e565b91506116ae8261166f565b600282019050919050565b5f81519050919050565b5f81905092915050565b5f6116d7826116b9565b6116e181856116c3565b93506116f1818560208601610ef8565b80840191505092915050565b5f61170782611697565b915061171382846116cd565b915081905092915050565b5f611728826109db565b91507fffffffffffffffffffffffffffffffffffffffffffffffffffffffffffffffff820361175a576117596112ec565b5b600182019050919050565b5f61176f82611563565b915061177a83611563565b9250828201905060ff811115611793576117926112ec565b5b9291505056fea2646970667358221220f63951b4070237662f1e780f53ccac0d28eebd13eb5c14d70044f27eef7926d864736f6c63430008180033","opcodes":"PUSH1 0x80 PUSH1 0x40 MSTORE CALLVALUE DUP1 ISZERO PUSH2 0xF JUMPI PUSH0 DUP1 REVERT JUMPDEST POP CALLER PUSH0 DUP1 PUSH2 0x100 EXP DUP2 SLOAD DUP2 PUSH20 0xFFFFFFFFFFFFFFFFFFFFFFFFFFFFFFFFFFFFFFFF MUL NOT AND SWAP1 DUP4 PUSH20 0xFFFFFFFFFFFFFFFFFFFFFFFFFFFFFFFFFFFFFFFF AND MUL OR SWAP1 SSTORE POP PUSH2 0x17CF DUP1 PUSH2 0x5C PUSH0 CODECOPY PUSH0 RETURN INVALID PUSH1 0x80 PUSH1 0x40 MSTORE CALLVALUE DUP1 ISZERO PUSH2 0xF JUMPI PUSH0 DUP1 REVERT JUMPDEST POP PUSH1 0x4 CALLDATASIZE LT PUSH2 0x55 JUMPI PUSH0 CALLDATALOAD PUSH1 0xE0 SHR DUP1 PUSH4 0x3092AFD5 EQ PUSH2 0x59 JUMPI DUP1 PUSH4 0x4CD1645C EQ PUSH2 0x75 JUMPI DUP1 PUSH4 0x8DA5CB5B EQ PUSH2 0x91 JUMPI DUP1 PUSH4 0x983B2D56 EQ PUSH2 0xAF JUMPI DUP1 PUSH4 0xAA271E1A EQ PUSH2 0xCB JUMPI JUMPDEST PUSH0 DUP1 REVERT JUMPDEST PUSH2 0x73 PUSH1 0x4 DUP1 CALLDATASIZE SUB DUP2 ADD SWAP1 PUSH2 0x6E SWAP2 SWAP1 PUSH2 0x9B0 JUMP JUMPDEST PUSH2 0xFB JUMP JUMPDEST STOP JUMPDEST PUSH2 0x8F PUSH1 0x4 DUP1 CALLDATASIZE SUB DUP2 ADD SWAP1 PUSH2 0x8A SWAP2 SWAP1 PUSH2 0xB4A JUMP JUMPDEST PUSH2 0x222 JUMP JUMPDEST STOP JUMPDEST PUSH2 0x99 PUSH2 0x446 JUMP JUMPDEST PUSH1 0x40 MLOAD PUSH2 0xA6 SWAP2 SWAP1 PUSH2 0xC52 JUMP JUMPDEST PUSH1 0x40 MLOAD DUP1 SWAP2 SUB SWAP1 RETURN JUMPDEST PUSH2 0xC9 PUSH1 0x4 DUP1 CALLDATASIZE SUB DUP2 ADD SWAP1 PUSH2 0xC4 SWAP2 SWAP1 PUSH2 0x9B0 JUMP JUMPDEST PUSH2 0x469 JUMP JUMPDEST STOP JUMPDEST PUSH2 0xE5 PUSH1 0x4 DUP1 CALLDATASIZE SUB DUP2 ADD SWAP1 PUSH2 0xE0 SWAP2 SWAP1 PUSH2 0x9B0 JUMP JUMPDEST PUSH2 0x590 JUMP JUMPDEST PUSH1 0x40 MLOAD PUSH2 0xF2 SWAP2 SWAP1 PUSH2 0xC85 JUMP JUMPDEST PUSH1 0x40 MLOAD DUP1 SWAP2 SUB SWAP1 RETURN JUMPDEST PUSH0 DUP1 SLOAD SWAP1 PUSH2 0x100 EXP SWAP1 DIV PUSH20 0xFFFFFFFFFFFFFFFFFFFFFFFFFFFFFFFFFFFFFFFF AND PUSH20 0xFFFFFFFFFFFFFFFFFFFFFFFFFFFFFFFFFFFFFFFF AND CALLER PUSH20 0xFFFFFFFFFFFFFFFFFFFFFFFFFFFFFFFFFFFFFFFF AND EQ PUSH2 0x188 JUMPI PUSH1 0x40 MLOAD PUSH32 0x8C379A000000000000000000000000000000000000000000000000000000000 DUP2 MSTORE PUSH1 0x4 ADD PUSH2 0x17F SWAP1 PUSH2 0xCF8 JUMP JUMPDEST PUSH1 0x40 MLOAD DUP1 SWAP2 SUB SWAP1 REVERT JUMPDEST PUSH0 PUSH1 0x1 PUSH0 DUP4 PUSH20 0xFFFFFFFFFFFFFFFFFFFFFFFFFFFFFFFFFFFFFFFF AND PUSH20 0xFFFFFFFFFFFFFFFFFFFFFFFFFFFFFFFFFFFFFFFF AND DUP2 MSTORE PUSH1 0x20 ADD SWAP1 DUP2 MSTORE PUSH1 0x20 ADD PUSH0 KECCAK256 PUSH0 PUSH2 0x100 EXP DUP2 SLOAD DUP2 PUSH1 0xFF MUL NOT AND SWAP1 DUP4 ISZERO ISZERO MUL OR SWAP1 SSTORE POP DUP1 PUSH20 0xFFFFFFFFFFFFFFFFFFFFFFFFFFFFFFFFFFFFFFFF AND PUSH32 0xE94479A9F7E1952CC78F2D6BAAB678ADC1B772D936C6583DEF489E524CB66692 PUSH1 0x40 MLOAD PUSH1 0x40 MLOAD DUP1 SWAP2 SUB SWAP1 LOG2 POP JUMP JUMPDEST PUSH0 DUP1 SLOAD SWAP1 PUSH2 0x100 EXP SWAP1 DIV PUSH20 0xFFFFFFFFFFFFFFFFFFFFFFFFFFFFFFFFFFFFFFFF AND PUSH20 0xFFFFFFFFFFFFFFFFFFFFFFFFFFFFFFFFFFFFFFFF AND CALLER PUSH20 0xFFFFFFFFFFFFFFFFFFFFFFFFFFFFFFFFFFFFFFFF AND EQ DUP1 PUSH2 0x2C1 JUMPI POP PUSH1 0x1 PUSH0 CALLER PUSH20 0xFFFFFFFFFFFFFFFFFFFFFFFFFFFFFFFFFFFFFFFF AND PUSH20 0xFFFFFFFFFFFFFFFFFFFFFFFFFFFFFFFFFFFFFFFF AND DUP2 MSTORE PUSH1 0x20 ADD SWAP1 DUP2 MSTORE PUSH1 0x20 ADD PUSH0 KECCAK256 PUSH0 SWAP1 SLOAD SWAP1 PUSH2 0x100 EXP SWAP1 DIV PUSH1 0xFF AND JUMPDEST PUSH2 0x300 JUMPI PUSH1 0x40 MLOAD PUSH32 0x8C379A000000000000000000000000000000000000000000000000000000000 DUP2 MSTORE PUSH1 0x4 ADD PUSH2 0x2F7 SWAP1 PUSH2 0xD60 JUMP JUMPDEST PUSH1 0x40 MLOAD DUP1 SWAP2 SUB SWAP1 REVERT JUMPDEST PUSH0 PUSH20 0xFFFFFFFFFFFFFFFFFFFFFFFFFFFFFFFFFFFFFFFF AND DUP7 PUSH20 0xFFFFFFFFFFFFFFFFFFFFFFFFFFFFFFFFFFFFFFFF AND SUB PUSH2 0x36E JUMPI PUSH1 0x40 MLOAD PUSH32 0x8C379A000000000000000000000000000000000000000000000000000000000 DUP2 MSTORE PUSH1 0x4 ADD PUSH2 0x365 SWAP1 PUSH2 0xDC8 JUMP JUMPDEST PUSH1 0x40 MLOAD DUP1 SWAP2 SUB SWAP1 REVERT JUMPDEST PUSH0 DUP6 GT PUSH2 0x3B0 JUMPI PUSH1 0x40 MLOAD PUSH32 0x8C379A000000000000000000000000000000000000000000000000000000000 DUP2 MSTORE PUSH1 0x4 ADD PUSH2 0x3A7 SWAP1 PUSH2 0xE30 JUMP JUMPDEST PUSH1 0x40 MLOAD DUP1 SWAP2 SUB SWAP1 REVERT JUMPDEST PUSH0 PUSH2 0x3BA DUP8 PUSH2 0x5AD JUMP JUMPDEST PUSH2 0x3C3 DUP8 PUSH2 0x782 JUMP JUMPDEST DUP7 DUP7 DUP7 DUP7 PUSH1 0x40 MLOAD PUSH1 0x20 ADD PUSH2 0x3DC SWAP7 SWAP6 SWAP5 SWAP4 SWAP3 SWAP2 SWAP1 PUSH2 0x11C8 JUMP JUMPDEST PUSH1 0x40 MLOAD PUSH1 0x20 DUP2 DUP4 SUB SUB DUP2 MSTORE SWAP1 PUSH1 0x40 MSTORE SWAP1 POP DUP7 PUSH20 0xFFFFFFFFFFFFFFFFFFFFFFFFFFFFFFFFFFFFFFFF AND PUSH32 0xCA0F5C4E95260CCA386A446E6554B30FD638991B929D7516609BA6B945494F8E DUP8 DUP4 PUSH1 0x40 MLOAD PUSH2 0x435 SWAP3 SWAP2 SWAP1 PUSH2 0x12BE JUMP JUMPDEST PUSH1 0x40 MLOAD DUP1 SWAP2 SUB SWAP1 LOG2 POP POP POP POP POP POP POP JUMP JUMPDEST PUSH0 DUP1 SLOAD SWAP1 PUSH2 0x100 EXP SWAP1 DIV PUSH20 0xFFFFFFFFFFFFFFFFFFFFFFFFFFFFFFFFFFFFFFFF AND DUP2 JUMP JUMPDEST PUSH0 DUP1 SLOAD SWAP1 PUSH2 0x100 EXP SWAP1 DIV PUSH20 0xFFFFFFFFFFFFFFFFFFFFFFFFFFFFFFFFFFFFFFFF AND PUSH20 0xFFFFFFFFFFFFFFFFFFFFFFFFFFFFFFFFFFFFFFFF AND CALLER PUSH20 0xFFFFFFFFFFFFFFFFFFFFFFFFFFFFFFFFFFFFFFFF AND EQ PUSH2 0x4F6 JUMPI PUSH1 0x40 MLOAD PUSH32 0x8C379A000000000000000000000000000000000000000000000000000000000 DUP2 MSTORE PUSH1 0x4 ADD PUSH2 0x4ED SWAP1 PUSH2 0xCF8 JUMP JUMPDEST PUSH1 0x40 MLOAD DUP1 SWAP2 SUB SWAP1 REVERT JUMPDEST PUSH1 0x1 DUP1 PUSH0 DUP4 PUSH20 0xFFFFFFFFFFFFFFFFFFFFFFFFFFFFFFFFFFFFFFFF AND PUSH20 0xFFFFFFFFFFFFFFFFFFFFFFFFFFFFFFFFFFFFFFFF AND DUP2 MSTORE PUSH1 0x20 ADD SWAP1 DUP2 MSTORE PUSH1 0x20 ADD PUSH0 KECCAK256 PUSH0 PUSH2 0x100 EXP DUP2 SLOAD DUP2 PUSH1 0xFF MUL NOT AND SWAP1 DUP4 ISZERO ISZERO MUL OR SWAP1 SSTORE POP DUP1 PUSH20 0xFFFFFFFFFFFFFFFFFFFFFFFFFFFFFFFFFFFFFFFF AND PUSH32 0x6AE172837EA30B801FBFCDD4108AA1D5BF8FF775444FD70256B44E6BF3DFC3F6 PUSH1 0x40 MLOAD PUSH1 0x40 MLOAD DUP1 SWAP2 SUB SWAP1 LOG2 POP JUMP JUMPDEST PUSH1 0x1 PUSH1 0x20 MSTORE DUP1 PUSH0 MSTORE PUSH1 0x40 PUSH0 KECCAK256 PUSH0 SWAP2 POP SLOAD SWAP1 PUSH2 0x100 EXP SWAP1 DIV PUSH1 0xFF AND DUP2 JUMP JUMPDEST PUSH1 0x60 PUSH0 PUSH1 0x28 PUSH8 0xFFFFFFFFFFFFFFFF DUP2 GT ISZERO PUSH2 0x5CB JUMPI PUSH2 0x5CA PUSH2 0xA26 JUMP JUMPDEST JUMPDEST PUSH1 0x40 MLOAD SWAP1 DUP1 DUP3 MSTORE DUP1 PUSH1 0x1F ADD PUSH1 0x1F NOT AND PUSH1 0x20 ADD DUP3 ADD PUSH1 0x40 MSTORE DUP1 ISZERO PUSH2 0x5FD JUMPI DUP2 PUSH1 0x20 ADD PUSH1 0x1 DUP3 MUL DUP1 CALLDATASIZE DUP4 CALLDATACOPY DUP1 DUP3 ADD SWAP2 POP POP SWAP1 POP JUMPDEST POP SWAP1 POP PUSH0 JUMPDEST PUSH1 0x14 DUP2 LT ISZERO PUSH2 0x759 JUMPI PUSH0 DUP2 PUSH1 0x13 PUSH2 0x619 SWAP2 SWAP1 PUSH2 0x1319 JUMP JUMPDEST PUSH1 0x8 PUSH2 0x625 SWAP2 SWAP1 PUSH2 0x134C JUMP JUMPDEST PUSH1 0x2 PUSH2 0x631 SWAP2 SWAP1 PUSH2 0x14BC JUMP JUMPDEST DUP6 PUSH20 0xFFFFFFFFFFFFFFFFFFFFFFFFFFFFFFFFFFFFFFFF AND PUSH2 0x652 SWAP2 SWAP1 PUSH2 0x1533 JUMP JUMPDEST PUSH1 0xF8 SHL SWAP1 POP PUSH0 PUSH1 0x10 DUP3 PUSH1 0xF8 SHR PUSH2 0x668 SWAP2 SWAP1 PUSH2 0x156F JUMP JUMPDEST PUSH1 0xF8 SHL SWAP1 POP PUSH0 DUP2 PUSH1 0xF8 SHR PUSH1 0x10 PUSH2 0x67E SWAP2 SWAP1 PUSH2 0x159F JUMP JUMPDEST DUP4 PUSH1 0xF8 SHR PUSH2 0x68C SWAP2 SWAP1 PUSH2 0x15DB JUMP JUMPDEST PUSH1 0xF8 SHL SWAP1 POP PUSH2 0x69A DUP3 PUSH2 0x900 JUMP JUMPDEST DUP6 DUP6 PUSH1 0x2 PUSH2 0x6A8 SWAP2 SWAP1 PUSH2 0x134C JUMP JUMPDEST DUP2 MLOAD DUP2 LT PUSH2 0x6B9 JUMPI PUSH2 0x6B8 PUSH2 0x160F JUMP JUMPDEST JUMPDEST PUSH1 0x20 ADD ADD SWAP1 PUSH31 0xFFFFFFFFFFFFFFFFFFFFFFFFFFFFFFFFFFFFFFFFFFFFFFFFFFFFFFFFFFFFFF NOT AND SWAP1 DUP2 PUSH0 BYTE SWAP1 MSTORE8 POP PUSH2 0x6F0 DUP2 PUSH2 0x900 JUMP JUMPDEST DUP6 PUSH1 0x1 DUP7 PUSH1 0x2 PUSH2 0x700 SWAP2 SWAP1 PUSH2 0x134C JUMP JUMPDEST PUSH2 0x70A SWAP2 SWAP1 PUSH2 0x163C JUMP JUMPDEST DUP2 MLOAD DUP2 LT PUSH2 0x71B JUMPI PUSH2 0x71A PUSH2 0x160F JUMP JUMPDEST JUMPDEST PUSH1 0x20 ADD ADD SWAP1 PUSH31 0xFFFFFFFFFFFFFFFFFFFFFFFFFFFFFFFFFFFFFFFFFFFFFFFFFFFFFFFFFFFFFF NOT AND SWAP1 DUP2 PUSH0 BYTE SWAP1 MSTORE8 POP POP POP POP DUP1 DUP1 PUSH1 0x1 ADD SWAP2 POP POP PUSH2 0x602 JUMP JUMPDEST POP DUP1 PUSH1 0x40 MLOAD PUSH1 0x20 ADD PUSH2 0x76B SWAP2 SWAP1 PUSH2 0x16FD JUMP JUMPDEST PUSH1 0x40 MLOAD PUSH1 0x20 DUP2 DUP4 SUB SUB DUP2 MSTORE SWAP1 PUSH1 0x40 MSTORE SWAP2 POP POP SWAP2 SWAP1 POP JUMP JUMPDEST PUSH1 0x60 PUSH0 DUP3 SUB PUSH2 0x7C8 JUMPI PUSH1 0x40 MLOAD DUP1 PUSH1 0x40 ADD PUSH1 0x40 MSTORE DUP1 PUSH1 0x1 DUP2 MSTORE PUSH1 0x20 ADD PUSH32 0x3000000000000000000000000000000000000000000000000000000000000000 DUP2 MSTORE POP SWAP1 POP PUSH2 0x8FB JUMP JUMPDEST PUSH0 DUP3 SWAP1 POP PUSH0 JUMPDEST PUSH0 DUP3 EQ PUSH2 0x7F7 JUMPI DUP1 DUP1 PUSH2 0x7E0 SWAP1 PUSH2 0x171E JUMP JUMPDEST SWAP2 POP POP PUSH1 0xA DUP3 PUSH2 0x7F0 SWAP2 SWAP1 PUSH2 0x1533 JUMP JUMPDEST SWAP2 POP PUSH2 0x7CE JUMP JUMPDEST PUSH0 DUP2 PUSH8 0xFFFFFFFFFFFFFFFF DUP2 GT ISZERO PUSH2 0x812 JUMPI PUSH2 0x811 PUSH2 0xA26 JUMP JUMPDEST JUMPDEST PUSH1 0x40 MLOAD SWAP1 DUP1 DUP3 MSTORE DUP1 PUSH1 0x1F ADD PUSH1 0x1F NOT AND PUSH1 0x20 ADD DUP3 ADD PUSH1 0x40 MSTORE DUP1 ISZERO PUSH2 0x844 JUMPI DUP2 PUSH1 0x20 ADD PUSH1 0x1 DUP3 MUL DUP1 CALLDATASIZE DUP4 CALLDATACOPY DUP1 DUP3 ADD SWAP2 POP POP SWAP1 POP JUMPDEST POP SWAP1 POP PUSH0 DUP3 SWAP1 POP JUMPDEST PUSH0 DUP7 EQ PUSH2 0x8F3 JUMPI PUSH1 0x1 DUP2 PUSH2 0x860 SWAP2 SWAP1 PUSH2 0x1319 JUMP JUMPDEST SWAP1 POP PUSH0 PUSH1 0xA DUP1 DUP9 PUSH2 0x871 SWAP2 SWAP1 PUSH2 0x1533 JUMP JUMPDEST PUSH2 0x87B SWAP2 SWAP1 PUSH2 0x134C JUMP JUMPDEST DUP8 PUSH2 0x886 SWAP2 SWAP1 PUSH2 0x1319 JUMP JUMPDEST PUSH1 0x30 PUSH2 0x892 SWAP2 SWAP1 PUSH2 0x1765 JUMP JUMPDEST SWAP1 POP PUSH0 DUP2 PUSH1 0xF8 SHL SWAP1 POP DUP1 DUP5 DUP5 DUP2 MLOAD DUP2 LT PUSH2 0x8AF JUMPI PUSH2 0x8AE PUSH2 0x160F JUMP JUMPDEST JUMPDEST PUSH1 0x20 ADD ADD SWAP1 PUSH31 0xFFFFFFFFFFFFFFFFFFFFFFFFFFFFFFFFFFFFFFFFFFFFFFFFFFFFFFFFFFFFFF NOT AND SWAP1 DUP2 PUSH0 BYTE SWAP1 MSTORE8 POP PUSH1 0xA DUP9 PUSH2 0x8EA SWAP2 SWAP1 PUSH2 0x1533 JUMP JUMPDEST SWAP8 POP POP POP PUSH2 0x84C JUMP JUMPDEST DUP2 SWAP5 POP POP POP POP POP JUMPDEST SWAP2 SWAP1 POP JUMP JUMPDEST PUSH0 PUSH1 0xA DUP3 PUSH1 0xF8 SHR PUSH1 0xFF AND LT ISZERO PUSH2 0x92A JUMPI PUSH1 0x30 DUP3 PUSH1 0xF8 SHR PUSH2 0x920 SWAP2 SWAP1 PUSH2 0x1765 JUMP JUMPDEST PUSH1 0xF8 SHL SWAP1 POP PUSH2 0x940 JUMP JUMPDEST PUSH1 0x57 DUP3 PUSH1 0xF8 SHR PUSH2 0x93A SWAP2 SWAP1 PUSH2 0x1765 JUMP JUMPDEST PUSH1 0xF8 SHL SWAP1 POP JUMPDEST SWAP2 SWAP1 POP JUMP JUMPDEST PUSH0 PUSH1 0x40 MLOAD SWAP1 POP SWAP1 JUMP JUMPDEST PUSH0 DUP1 REVERT JUMPDEST PUSH0 DUP1 REVERT JUMPDEST PUSH0 PUSH20 0xFFFFFFFFFFFFFFFFFFFFFFFFFFFFFFFFFFFFFFFF DUP3 AND SWAP1 POP SWAP2 SWAP1 POP JUMP JUMPDEST PUSH0 PUSH2 0x97F DUP3 PUSH2 0x956 JUMP JUMPDEST SWAP1 POP SWAP2 SWAP1 POP JUMP JUMPDEST PUSH2 0x98F DUP2 PUSH2 0x975 JUMP JUMPDEST DUP2 EQ PUSH2 0x999 JUMPI PUSH0 DUP1 REVERT JUMPDEST POP JUMP JUMPDEST PUSH0 DUP2 CALLDATALOAD SWAP1 POP PUSH2 0x9AA DUP2 PUSH2 0x986 JUMP JUMPDEST SWAP3 SWAP2 POP POP JUMP JUMPDEST PUSH0 PUSH1 0x20 DUP3 DUP5 SUB SLT ISZERO PUSH2 0x9C5 JUMPI PUSH2 0x9C4 PUSH2 0x94E JUMP JUMPDEST JUMPDEST PUSH0 PUSH2 0x9D2 DUP5 DUP3 DUP6 ADD PUSH2 0x99C JUMP JUMPDEST SWAP2 POP POP SWAP3 SWAP2 POP POP JUMP JUMPDEST PUSH0 DUP2 SWAP1 POP SWAP2 SWAP1 POP JUMP JUMPDEST PUSH2 0x9ED DUP2 PUSH2 0x9DB JUMP JUMPDEST DUP2 EQ PUSH2 0x9F7 JUMPI PUSH0 DUP1 REVERT JUMPDEST POP JUMP JUMPDEST PUSH0 DUP2 CALLDATALOAD SWAP1 POP PUSH2 0xA08 DUP2 PUSH2 0x9E4 JUMP JUMPDEST SWAP3 SWAP2 POP POP JUMP JUMPDEST PUSH0 DUP1 REVERT JUMPDEST PUSH0 DUP1 REVERT JUMPDEST PUSH0 PUSH1 0x1F NOT PUSH1 0x1F DUP4 ADD AND SWAP1 POP SWAP2 SWAP1 POP JUMP JUMPDEST PUSH32 0x4E487B7100000000000000000000000000000000000000000000000000000000 PUSH0 MSTORE PUSH1 0x41 PUSH1 0x4 MSTORE PUSH1 0x24 PUSH0 REVERT JUMPDEST PUSH2 0xA5C DUP3 PUSH2 0xA16 JUMP JUMPDEST DUP2 ADD DUP2 DUP2 LT PUSH8 0xFFFFFFFFFFFFFFFF DUP3 GT OR ISZERO PUSH2 0xA7B JUMPI PUSH2 0xA7A PUSH2 0xA26 JUMP JUMPDEST JUMPDEST DUP1 PUSH1 0x40 MSTORE POP POP POP JUMP JUMPDEST PUSH0 PUSH2 0xA8D PUSH2 0x945 JUMP JUMPDEST SWAP1 POP PUSH2 0xA99 DUP3 DUP3 PUSH2 0xA53 JUMP JUMPDEST SWAP2 SWAP1 POP JUMP JUMPDEST PUSH0 PUSH8 0xFFFFFFFFFFFFFFFF DUP3 GT ISZERO PUSH2 0xAB8 JUMPI PUSH2 0xAB7 PUSH2 0xA26 JUMP JUMPDEST JUMPDEST PUSH2 0xAC1 DUP3 PUSH2 0xA16 JUMP JUMPDEST SWAP1 POP PUSH1 0x20 DUP2 ADD SWAP1 POP SWAP2 SWAP1 POP JUMP JUMPDEST DUP3 DUP2 DUP4 CALLDATACOPY PUSH0 DUP4 DUP4 ADD MSTORE POP POP POP JUMP JUMPDEST PUSH0 PUSH2 0xAEE PUSH2 0xAE9 DUP5 PUSH2 0xA9E JUMP JUMPDEST PUSH2 0xA84 JUMP JUMPDEST SWAP1 POP DUP3 DUP2 MSTORE PUSH1 0x20 DUP2 ADD DUP5 DUP5 DUP5 ADD GT ISZERO PUSH2 0xB0A JUMPI PUSH2 0xB09 PUSH2 0xA12 JUMP JUMPDEST JUMPDEST PUSH2 0xB15 DUP5 DUP3 DUP6 PUSH2 0xACE JUMP JUMPDEST POP SWAP4 SWAP3 POP POP POP JUMP JUMPDEST PUSH0 DUP3 PUSH1 0x1F DUP4 ADD SLT PUSH2 0xB31 JUMPI PUSH2 0xB30 PUSH2 0xA0E JUMP JUMPDEST JUMPDEST DUP2 CALLDATALOAD PUSH2 0xB41 DUP5 DUP3 PUSH1 0x20 DUP7 ADD PUSH2 0xADC JUMP JUMPDEST SWAP2 POP POP SWAP3 SWAP2 POP POP JUMP JUMPDEST PUSH0 DUP1 PUSH0 DUP1 PUSH0 DUP1 PUSH1 0xC0 DUP8 DUP10 SUB SLT ISZERO PUSH2 0xB64 JUMPI PUSH2 0xB63 PUSH2 0x94E JUMP JUMPDEST JUMPDEST PUSH0 PUSH2 0xB71 DUP10 DUP3 DUP11 ADD PUSH2 0x99C JUMP JUMPDEST SWAP7 POP POP PUSH1 0x20 PUSH2 0xB82 DUP10 DUP3 DUP11 ADD PUSH2 0x9FA JUMP JUMPDEST SWAP6 POP POP PUSH1 0x40 DUP8 ADD CALLDATALOAD PUSH8 0xFFFFFFFFFFFFFFFF DUP2 GT ISZERO PUSH2 0xBA3 JUMPI PUSH2 0xBA2 PUSH2 0x952 JUMP JUMPDEST JUMPDEST PUSH2 0xBAF DUP10 DUP3 DUP11 ADD PUSH2 0xB1D JUMP JUMPDEST SWAP5 POP POP PUSH1 0x60 DUP8 ADD CALLDATALOAD PUSH8 0xFFFFFFFFFFFFFFFF DUP2 GT ISZERO PUSH2 0xBD0 JUMPI PUSH2 0xBCF PUSH2 0x952 JUMP JUMPDEST JUMPDEST PUSH2 0xBDC DUP10 DUP3 DUP11 ADD PUSH2 0xB1D JUMP JUMPDEST SWAP4 POP POP PUSH1 0x80 DUP8 ADD CALLDATALOAD PUSH8 0xFFFFFFFFFFFFFFFF DUP2 GT ISZERO PUSH2 0xBFD JUMPI PUSH2 0xBFC PUSH2 0x952 JUMP JUMPDEST JUMPDEST PUSH2 0xC09 DUP10 DUP3 DUP11 ADD PUSH2 0xB1D JUMP JUMPDEST SWAP3 POP POP PUSH1 0xA0 DUP8 ADD CALLDATALOAD PUSH8 0xFFFFFFFFFFFFFFFF DUP2 GT ISZERO PUSH2 0xC2A JUMPI PUSH2 0xC29 PUSH2 0x952 JUMP JUMPDEST JUMPDEST PUSH2 0xC36 DUP10 DUP3 DUP11 ADD PUSH2 0xB1D JUMP JUMPDEST SWAP2 POP POP SWAP3 SWAP6 POP SWAP3 SWAP6 POP SWAP3 SWAP6 JUMP JUMPDEST PUSH2 0xC4C DUP2 PUSH2 0x975 JUMP JUMPDEST DUP3 MSTORE POP POP JUMP JUMPDEST PUSH0 PUSH1 0x20 DUP3 ADD SWAP1 POP PUSH2 0xC65 PUSH0 DUP4 ADD DUP5 PUSH2 0xC43 JUMP JUMPDEST SWAP3 SWAP2 POP POP JUMP JUMPDEST PUSH0 DUP2 ISZERO ISZERO SWAP1 POP SWAP2 SWAP1 POP JUMP JUMPDEST PUSH2 0xC7F DUP2 PUSH2 0xC6B JUMP JUMPDEST DUP3 MSTORE POP POP JUMP JUMPDEST PUSH0 PUSH1 0x20 DUP3 ADD SWAP1 POP PUSH2 0xC98 PUSH0 DUP4 ADD DUP5 PUSH2 0xC76 JUMP JUMPDEST SWAP3 SWAP2 POP POP JUMP JUMPDEST PUSH0 DUP3 DUP3 MSTORE PUSH1 0x20 DUP3 ADD SWAP1 POP SWAP3 SWAP2 POP POP JUMP JUMPDEST PUSH32 0x43616C6C6572206973206E6F7420746865206F776E6572000000000000000000 PUSH0 DUP3 ADD MSTORE POP JUMP JUMPDEST PUSH0 PUSH2 0xCE2 PUSH1 0x17 DUP4 PUSH2 0xC9E JUMP JUMPDEST SWAP2 POP PUSH2 0xCED DUP3 PUSH2 0xCAE JUMP JUMPDEST PUSH1 0x20 DUP3 ADD SWAP1 POP SWAP2 SWAP1 POP JUMP JUMPDEST PUSH0 PUSH1 0x20 DUP3 ADD SWAP1 POP DUP2 DUP2 SUB PUSH0 DUP4 ADD MSTORE PUSH2 0xD0F DUP2 PUSH2 0xCD6 JUMP JUMPDEST SWAP1 POP SWAP2 SWAP1 POP JUMP JUMPDEST PUSH32 0x43616C6C6572206973206E6F742061206D696E74657200000000000000000000 PUSH0 DUP3 ADD MSTORE POP JUMP JUMPDEST PUSH0 PUSH2 0xD4A PUSH1 0x16 DUP4 PUSH2 0xC9E JUMP JUMPDEST SWAP2 POP PUSH2 0xD55 DUP3 PUSH2 0xD16 JUMP JUMPDEST PUSH1 0x20 DUP3 ADD SWAP1 POP SWAP2 SWAP1 POP JUMP JUMPDEST PUSH0 PUSH1 0x20 DUP3 ADD SWAP1 POP DUP2 DUP2 SUB PUSH0 DUP4 ADD MSTORE PUSH2 0xD77 DUP2 PUSH2 0xD3E JUMP JUMPDEST SWAP1 POP SWAP2 SWAP1 POP JUMP JUMPDEST PUSH32 0x496E76616C696420627579657220616464726573730000000000000000000000 PUSH0 DUP3 ADD MSTORE POP JUMP JUMPDEST PUSH0 PUSH2 0xDB2 PUSH1 0x15 DUP4 PUSH2 0xC9E JUMP JUMPDEST SWAP2 POP PUSH2 0xDBD DUP3 PUSH2 0xD7E JUMP JUMPDEST PUSH1 0x20 DUP3 ADD SWAP1 POP SWAP2 SWAP1 POP JUMP JUMPDEST PUSH0 PUSH1 0x20 DUP3 ADD SWAP1 POP DUP2 DUP2 SUB PUSH0 DUP4 ADD MSTORE PUSH2 0xDDF DUP2 PUSH2 0xDA6 JUMP JUMPDEST SWAP1 POP SWAP2 SWAP1 POP JUMP JUMPDEST PUSH32 0x416D6F756E74206D7573742062652067726561746572207468616E207A65726F PUSH0 DUP3 ADD MSTORE POP JUMP JUMPDEST PUSH0 PUSH2 0xE1A PUSH1 0x20 DUP4 PUSH2 0xC9E JUMP JUMPDEST SWAP2 POP PUSH2 0xE25 DUP3 PUSH2 0xDE6 JUMP JUMPDEST PUSH1 0x20 DUP3 ADD SWAP1 POP SWAP2 SWAP1 POP JUMP JUMPDEST PUSH0 PUSH1 0x20 DUP3 ADD SWAP1 POP DUP2 DUP2 SUB PUSH0 DUP4 ADD MSTORE PUSH2 0xE47 DUP2 PUSH2 0xE0E JUMP JUMPDEST SWAP1 POP SWAP2 SWAP1 POP JUMP JUMPDEST PUSH0 DUP2 SWAP1 POP SWAP3 SWAP2 POP POP JUMP JUMPDEST PUSH32 0x646174613A6170706C69636174696F6E2F6A736F6E2C7B2270223A22476F6C64 PUSH0 DUP3 ADD MSTORE PUSH32 0x6261636B626F6E642D55534447422D616C6C6F636174696F6E222C226F70223A PUSH1 0x20 DUP3 ADD MSTORE PUSH32 0x226D696E74222C226275796572223A2200000000000000000000000000000000 PUSH1 0x40 DUP3 ADD MSTORE POP JUMP JUMPDEST PUSH0 PUSH2 0xED8 PUSH1 0x50 DUP4 PUSH2 0xE4E JUMP JUMPDEST SWAP2 POP PUSH2 0xEE3 DUP3 PUSH2 0xE58 JUMP JUMPDEST PUSH1 0x50 DUP3 ADD SWAP1 POP SWAP2 SWAP1 POP JUMP JUMPDEST PUSH0 DUP2 MLOAD SWAP1 POP SWAP2 SWAP1 POP JUMP JUMPDEST PUSH0 JUMPDEST DUP4 DUP2 LT ISZERO PUSH2 0xF15 JUMPI DUP1 DUP3 ADD MLOAD DUP2 DUP5 ADD MSTORE PUSH1 0x20 DUP2 ADD SWAP1 POP PUSH2 0xEFA JUMP JUMPDEST PUSH0 DUP5 DUP5 ADD MSTORE POP POP POP POP JUMP JUMPDEST PUSH0 PUSH2 0xF2A DUP3 PUSH2 0xEEE JUMP JUMPDEST PUSH2 0xF34 DUP2 DUP6 PUSH2 0xE4E JUMP JUMPDEST SWAP4 POP PUSH2 0xF44 DUP2 DUP6 PUSH1 0x20 DUP7 ADD PUSH2 0xEF8 JUMP JUMPDEST DUP1 DUP5 ADD SWAP2 POP POP SWAP3 SWAP2 POP POP JUMP JUMPDEST PUSH32 0x222C22616D6F756E74223A220000000000000000000000000000000000000000 PUSH0 DUP3 ADD MSTORE POP JUMP JUMPDEST PUSH0 PUSH2 0xF84 PUSH1 0xC DUP4 PUSH2 0xE4E JUMP JUMPDEST SWAP2 POP PUSH2 0xF8F DUP3 PUSH2 0xF50 JUMP JUMPDEST PUSH1 0xC DUP3 ADD SWAP1 POP SWAP2 SWAP1 POP JUMP JUMPDEST PUSH32 0x222C227465726D73223A22000000000000000000000000000000000000000000 PUSH0 DUP3 ADD MSTORE POP JUMP JUMPDEST PUSH0 PUSH2 0xFCE PUSH1 0xB DUP4 PUSH2 0xE4E JUMP JUMPDEST SWAP2 POP PUSH2 0xFD9 DUP3 PUSH2 0xF9A JUMP JUMPDEST PUSH1 0xB DUP3 ADD SWAP1 POP SWAP2 SWAP1 POP JUMP JUMPDEST PUSH32 0x222C226167656E74496E666F223A220000000000000000000000000000000000 PUSH0 DUP3 ADD MSTORE POP JUMP JUMPDEST PUSH0 PUSH2 0x1018 PUSH1 0xF DUP4 PUSH2 0xE4E JUMP JUMPDEST SWAP2 POP PUSH2 0x1023 DUP3 PUSH2 0xFE4 JUMP JUMPDEST PUSH1 0xF DUP3 ADD SWAP1 POP SWAP2 SWAP1 POP JUMP JUMPDEST PUSH32 0x222C22636F6D6D697373696F6E496E666F223A22000000000000000000000000 PUSH0 DUP3 ADD MSTORE POP JUMP JUMPDEST PUSH0 PUSH2 0x1062 PUSH1 0x14 DUP4 PUSH2 0xE4E JUMP JUMPDEST SWAP2 POP PUSH2 0x106D DUP3 PUSH2 0x102E JUMP JUMPDEST PUSH1 0x14 DUP3 ADD SWAP1 POP SWAP2 SWAP1 POP JUMP JUMPDEST PUSH32 0x222C227061796D656E7454797065223A22000000000000000000000000000000 PUSH0 DUP3 ADD MSTORE POP JUMP JUMPDEST PUSH0 PUSH2 0x10AC PUSH1 0x11 DUP4 PUSH2 0xE4E JUMP JUMPDEST SWAP2 POP PUSH2 0x10B7 DUP3 PUSH2 0x1078 JUMP JUMPDEST PUSH1 0x11 DUP3 ADD SWAP1 POP SWAP2 SWAP1 POP JUMP JUMPDEST PUSH32 0x222C226C6567616C446973636C6F73757265223A225468697320746F6B656E20 PUSH0 DUP3 ADD MSTORE PUSH32 0x726570726573656E7473206120636F6E747261637420726967687420746F2069 PUSH1 0x20 DUP3 ADD MSTORE PUSH32 0x6E76656E746F72792E2054686973206973206E6F742061207365637572697479 PUSH1 0x40 DUP3 ADD MSTORE PUSH32 0x206F7220646572697661746976652E222C000000000000000000000000000000 PUSH1 0x60 DUP3 ADD MSTORE POP JUMP JUMPDEST PUSH0 PUSH2 0x1168 PUSH1 0x71 DUP4 PUSH2 0xE4E JUMP JUMPDEST SWAP2 POP PUSH2 0x1173 DUP3 PUSH2 0x10C2 JUMP JUMPDEST PUSH1 0x71 DUP3 ADD SWAP1 POP SWAP2 SWAP1 POP JUMP JUMPDEST PUSH32 0x227D000000000000000000000000000000000000000000000000000000000000 PUSH0 DUP3 ADD MSTORE POP JUMP JUMPDEST PUSH0 PUSH2 0x11B2 PUSH1 0x2 DUP4 PUSH2 0xE4E JUMP JUMPDEST SWAP2 POP PUSH2 0x11BD DUP3 PUSH2 0x117E JUMP JUMPDEST PUSH1 0x2 DUP3 ADD SWAP1 POP SWAP2 SWAP1 POP JUMP JUMPDEST PUSH0 PUSH2 0x11D2 DUP3 PUSH2 0xECC JUMP JUMPDEST SWAP2 POP PUSH2 0x11DE DUP3 DUP10 PUSH2 0xF20 JUMP JUMPDEST SWAP2 POP PUSH2 0x11E9 DUP3 PUSH2 0xF78 JUMP JUMPDEST SWAP2 POP PUSH2 0x11F5 DUP3 DUP9 PUSH2 0xF20 JUMP JUMPDEST SWAP2 POP PUSH2 0x1200 DUP3 PUSH2 0xFC2 JUMP JUMPDEST SWAP2 POP PUSH2 0x120C DUP3 DUP8 PUSH2 0xF20 JUMP JUMPDEST SWAP2 POP PUSH2 0x1217 DUP3 PUSH2 0x100C JUMP JUMPDEST SWAP2 POP PUSH2 0x1223 DUP3 DUP7 PUSH2 0xF20 JUMP JUMPDEST SWAP2 POP PUSH2 0x122E DUP3 PUSH2 0x1056 JUMP JUMPDEST SWAP2 POP PUSH2 0x123A DUP3 DUP6 PUSH2 0xF20 JUMP JUMPDEST SWAP2 POP PUSH2 0x1245 DUP3 PUSH2 0x10A0 JUMP JUMPDEST SWAP2 POP PUSH2 0x1251 DUP3 DUP5 PUSH2 0xF20 JUMP JUMPDEST SWAP2 POP PUSH2 0x125C DUP3 PUSH2 0x115C JUMP JUMPDEST SWAP2 POP PUSH2 0x1267 DUP3 PUSH2 0x11A6 JUMP JUMPDEST SWAP2 POP DUP2 SWAP1 POP SWAP8 SWAP7 POP POP POP POP POP POP POP JUMP JUMPDEST PUSH2 0x1280 DUP2 PUSH2 0x9DB JUMP JUMPDEST DUP3 MSTORE POP POP JUMP JUMPDEST PUSH0 PUSH2 0x1290 DUP3 PUSH2 0xEEE JUMP JUMPDEST PUSH2 0x129A DUP2 DUP6 PUSH2 0xC9E JUMP JUMPDEST SWAP4 POP PUSH2 0x12AA DUP2 DUP6 PUSH1 0x20 DUP7 ADD PUSH2 0xEF8 JUMP JUMPDEST PUSH2 0x12B3 DUP2 PUSH2 0xA16 JUMP JUMPDEST DUP5 ADD SWAP2 POP POP SWAP3 SWAP2 POP POP JUMP JUMPDEST PUSH0 PUSH1 0x40 DUP3 ADD SWAP1 POP PUSH2 0x12D1 PUSH0 DUP4 ADD DUP6 PUSH2 0x1277 JUMP JUMPDEST DUP2 DUP2 SUB PUSH1 0x20 DUP4 ADD MSTORE PUSH2 0x12E3 DUP2 DUP5 PUSH2 0x1286 JUMP JUMPDEST SWAP1 POP SWAP4 SWAP3 POP POP POP JUMP JUMPDEST PUSH32 0x4E487B7100000000000000000000000000000000000000000000000000000000 PUSH0 MSTORE PUSH1 0x11 PUSH1 0x4 MSTORE PUSH1 0x24 PUSH0 REVERT JUMPDEST PUSH0 PUSH2 0x1323 DUP3 PUSH2 0x9DB JUMP JUMPDEST SWAP2 POP PUSH2 0x132E DUP4 PUSH2 0x9DB JUMP JUMPDEST SWAP3 POP DUP3 DUP3 SUB SWAP1 POP DUP2 DUP2 GT ISZERO PUSH2 0x1346 JUMPI PUSH2 0x1345 PUSH2 0x12EC JUMP JUMPDEST JUMPDEST SWAP3 SWAP2 POP POP JUMP JUMPDEST PUSH0 PUSH2 0x1356 DUP3 PUSH2 0x9DB JUMP JUMPDEST SWAP2 POP PUSH2 0x1361 DUP4 PUSH2 0x9DB JUMP JUMPDEST SWAP3 POP DUP3 DUP3 MUL PUSH2 0x136F DUP2 PUSH2 0x9DB JUMP JUMPDEST SWAP2 POP DUP3 DUP3 DIV DUP5 EQ DUP4 ISZERO OR PUSH2 0x1386 JUMPI PUSH2 0x1385 PUSH2 0x12EC JUMP JUMPDEST JUMPDEST POP SWAP3 SWAP2 POP POP JUMP JUMPDEST PUSH0 DUP2 PUSH1 0x1 SHR SWAP1 POP SWAP2 SWAP1 POP JUMP JUMPDEST PUSH0 DUP1 DUP3 SWAP2 POP DUP4 SWAP1 POP JUMPDEST PUSH1 0x1 DUP6 GT ISZERO PUSH2 0x13E2 JUMPI DUP1 DUP7 DIV DUP2 GT ISZERO PUSH2 0x13BE JUMPI PUSH2 0x13BD PUSH2 0x12EC JUMP JUMPDEST JUMPDEST PUSH1 0x1 DUP6 AND ISZERO PUSH2 0x13CD JUMPI DUP1 DUP3 MUL SWAP2 POP JUMPDEST DUP1 DUP2 MUL SWAP1 POP PUSH2 0x13DB DUP6 PUSH2 0x138D JUMP JUMPDEST SWAP5 POP PUSH2 0x13A2 JUMP JUMPDEST SWAP5 POP SWAP5 SWAP3 POP POP POP JUMP JUMPDEST PUSH0 DUP3 PUSH2 0x13FA JUMPI PUSH1 0x1 SWAP1 POP PUSH2 0x14B5 JUMP JUMPDEST DUP2 PUSH2 0x1407 JUMPI PUSH0 SWAP1 POP PUSH2 0x14B5 JUMP JUMPDEST DUP2 PUSH1 0x1 DUP2 EQ PUSH2 0x141D JUMPI PUSH1 0x2 DUP2 EQ PUSH2 0x1427 JUMPI PUSH2 0x1456 JUMP JUMPDEST PUSH1 0x1 SWAP2 POP POP PUSH2 0x14B5 JUMP JUMPDEST PUSH1 0xFF DUP5 GT ISZERO PUSH2 0x1439 JUMPI PUSH2 0x1438 PUSH2 0x12EC JUMP JUMPDEST JUMPDEST DUP4 PUSH1 0x2 EXP SWAP2 POP DUP5 DUP3 GT ISZERO PUSH2 0x1450 JUMPI PUSH2 0x144F PUSH2 0x12EC JUMP JUMPDEST JUMPDEST POP PUSH2 0x14B5 JUMP JUMPDEST POP PUSH1 0x20 DUP4 LT PUSH2 0x133 DUP4 LT AND PUSH1 0x4E DUP5 LT PUSH1 0xB DUP5 LT AND OR ISZERO PUSH2 0x148B JUMPI DUP3 DUP3 EXP SWAP1 POP DUP4 DUP2 GT ISZERO PUSH2 0x1486 JUMPI PUSH2 0x1485 PUSH2 0x12EC JUMP JUMPDEST JUMPDEST PUSH2 0x14B5 JUMP JUMPDEST PUSH2 0x1498 DUP5 DUP5 DUP5 PUSH1 0x1 PUSH2 0x1399 JUMP JUMPDEST SWAP3 POP SWAP1 POP DUP2 DUP5 DIV DUP2 GT ISZERO PUSH2 0x14AF JUMPI PUSH2 0x14AE PUSH2 0x12EC JUMP JUMPDEST JUMPDEST DUP2 DUP2 MUL SWAP1 POP JUMPDEST SWAP4 SWAP3 POP POP POP JUMP JUMPDEST PUSH0 PUSH2 0x14C6 DUP3 PUSH2 0x9DB JUMP JUMPDEST SWAP2 POP PUSH2 0x14D1 DUP4 PUSH2 0x9DB JUMP JUMPDEST SWAP3 POP PUSH2 0x14FE PUSH32 0xFFFFFFFFFFFFFFFFFFFFFFFFFFFFFFFFFFFFFFFFFFFFFFFFFFFFFFFFFFFFFFFF DUP5 DUP5 PUSH2 0x13EB JUMP JUMPDEST SWAP1 POP SWAP3 SWAP2 POP POP JUMP JUMPDEST PUSH32 0x4E487B7100000000000000000000000000000000000000000000000000000000 PUSH0 MSTORE PUSH1 0x12 PUSH1 0x4 MSTORE PUSH1 0x24 PUSH0 REVERT JUMPDEST PUSH0 PUSH2 0x153D DUP3 PUSH2 0x9DB JUMP JUMPDEST SWAP2 POP PUSH2 0x1548 DUP4 PUSH2 0x9DB JUMP JUMPDEST SWAP3 POP DUP3 PUSH2 0x1558 JUMPI PUSH2 0x1557 PUSH2 0x1506 JUMP JUMPDEST JUMPDEST DUP3 DUP3 DIV SWAP1 POP SWAP3 SWAP2 POP POP JUMP JUMPDEST PUSH0 PUSH1 0xFF DUP3 AND SWAP1 POP SWAP2 SWAP1 POP JUMP JUMPDEST PUSH0 PUSH2 0x1579 DUP3 PUSH2 0x1563 JUMP JUMPDEST SWAP2 POP PUSH2 0x1584 DUP4 PUSH2 0x1563 JUMP JUMPDEST SWAP3 POP DUP3 PUSH2 0x1594 JUMPI PUSH2 0x1593 PUSH2 0x1506 JUMP JUMPDEST JUMPDEST DUP3 DUP3 DIV SWAP1 POP SWAP3 SWAP2 POP POP JUMP JUMPDEST PUSH0 PUSH2 0x15A9 DUP3 PUSH2 0x1563 JUMP JUMPDEST SWAP2 POP PUSH2 0x15B4 DUP4 PUSH2 0x1563 JUMP JUMPDEST SWAP3 POP DUP3 DUP3 MUL PUSH2 0x15C2 DUP2 PUSH2 0x1563 JUMP JUMPDEST SWAP2 POP DUP1 DUP3 EQ PUSH2 0x15D4 JUMPI PUSH2 0x15D3 PUSH2 0x12EC JUMP JUMPDEST JUMPDEST POP SWAP3 SWAP2 POP POP JUMP JUMPDEST PUSH0 PUSH2 0x15E5 DUP3 PUSH2 0x1563 JUMP JUMPDEST SWAP2 POP PUSH2 0x15F0 DUP4 PUSH2 0x1563 JUMP JUMPDEST SWAP3 POP DUP3 DUP3 SUB SWAP1 POP PUSH1 0xFF DUP2 GT ISZERO PUSH2 0x1609 JUMPI PUSH2 0x1608 PUSH2 0x12EC JUMP JUMPDEST JUMPDEST SWAP3 SWAP2 POP POP JUMP JUMPDEST PUSH32 0x4E487B7100000000000000000000000000000000000000000000000000000000 PUSH0 MSTORE PUSH1 0x32 PUSH1 0x4 MSTORE PUSH1 0x24 PUSH0 REVERT JUMPDEST PUSH0 PUSH2 0x1646 DUP3 PUSH2 0x9DB JUMP JUMPDEST SWAP2 POP PUSH2 0x1651 DUP4 PUSH2 0x9DB JUMP JUMPDEST SWAP3 POP DUP3 DUP3 ADD SWAP1 POP DUP1 DUP3 GT ISZERO PUSH2 0x1669 JUMPI PUSH2 0x1668 PUSH2 0x12EC JUMP JUMPDEST JUMPDEST SWAP3 SWAP2 POP POP JUMP JUMPDEST PUSH32 0x3078000000000000000000000000000000000000000000000000000000000000 PUSH0 DUP3 ADD MSTORE POP JUMP JUMPDEST PUSH0 PUSH2 0x16A3 PUSH1 0x2 DUP4 PUSH2 0xE4E JUMP JUMPDEST SWAP2 POP PUSH2 0x16AE DUP3 PUSH2 0x166F JUMP JUMPDEST PUSH1 0x2 DUP3 ADD SWAP1 POP SWAP2 SWAP1 POP JUMP JUMPDEST PUSH0 DUP2 MLOAD SWAP1 POP SWAP2 SWAP1 POP JUMP JUMPDEST PUSH0 DUP2 SWAP1 POP SWAP3 SWAP2 POP POP JUMP JUMPDEST PUSH0 PUSH2 0x16D7 DUP3 PUSH2 0x16B9 JUMP JUMPDEST PUSH2 0x16E1 DUP2 DUP6 PUSH2 0x16C3 JUMP JUMPDEST SWAP4 POP PUSH2 0x16F1 DUP2 DUP6 PUSH1 0x20 DUP7 ADD PUSH2 0xEF8 JUMP JUMPDEST DUP1 DUP5 ADD SWAP2 POP POP SWAP3 SWAP2 POP POP JUMP JUMPDEST PUSH0 PUSH2 0x1707 DUP3 PUSH2 0x1697 JUMP JUMPDEST SWAP2 POP PUSH2 0x1713 DUP3 DUP5 PUSH2 0x16CD JUMP JUMPDEST SWAP2 POP DUP2 SWAP1 POP SWAP3 SWAP2 POP POP JUMP JUMPDEST PUSH0 PUSH2 0x1728 DUP3 PUSH2 0x9DB JUMP JUMPDEST SWAP2 POP PUSH32 0xFFFFFFFFFFFFFFFFFFFFFFFFFFFFFFFFFFFFFFFFFFFFFFFFFFFFFFFFFFFFFFFF DUP3 SUB PUSH2 0x175A JUMPI PUSH2 0x1759 PUSH2 0x12EC JUMP JUMPDEST JUMPDEST PUSH1 0x1 DUP3 ADD SWAP1 POP SWAP2 SWAP1 POP JUMP JUMPDEST PUSH0 PUSH2 0x176F DUP3 PUSH2 0x1563 JUMP JUMPDEST SWAP2 POP PUSH2 0x177A DUP4 PUSH2 0x1563 JUMP JUMPDEST SWAP3 POP DUP3 DUP3 ADD SWAP1 POP PUSH1 0xFF DUP2 GT ISZERO PUSH2 0x1793 JUMPI PUSH2 0x1792 PUSH2 0x12EC JUMP JUMPDEST JUMPDEST SWAP3 SWAP2 POP POP JUMP INVALID LOG2 PUSH5 0x6970667358 0x22 SLT KECCAK256 0xF6 CODECOPY MLOAD 0xB4 SMOD MUL CALLDATACOPY PUSH7 0x2F1E780F53CCAC 0xD 0x28 0xEE 0xBD SGT 0xEB TLOAD EQ 0xD7 STOP PREVRANDAO CALLCODE PUSH31 0xEF7926D864736F6C6343000818003300000000000000000000000000000000 "},"methodIdentifiers":{"addMinter(address)":"983b2d56","isMinter(address)":"aa271e1a","issueAllocation(address,uint256,string,string,string,string)":"4cd1645c","owner()":"8da5cb5b","removeMinter(address)":"3092afd5"}}}}}