{
  "_format": "hh3-artifact-1",
  "contractName": "GBBAllocationInscription",
  "sourceName": "contracts/GBBAllocationInscription.sol",
  "abi": [
    {
      "inputs": [],
      "stateMutability": "nonpayable",
      "type": "constructor"
    },
    {
      "anonymous": false,
      "inputs": [
        {
          "indexed": true,
          "internalType": "address",
          "name": "buyer",
          "type": "address"
        },
        {
          "indexed": false,
          "internalType": "uint256",
          "name": "amount",
          "type": "uint256"
        },
        {
          "indexed": false,
          "internalType": "string",
          "name": "dataURI",
          "type": "string"
        }
      ],
      "name": "AllocationInscribed",
      "type": "event"
    },
    {
      "anonymous": false,
      "inputs": [
        {
          "indexed": true,
          "internalType": "address",
          "name": "account",
          "type": "address"
        }
      ],
      "name": "MinterAdded",
      "type": "event"
    },
    {
      "anonymous": false,
      "inputs": [
        {
          "indexed": true,
          "internalType": "address",
          "name": "account",
          "type": "address"
        }
      ],
      "name": "MinterRemoved",
      "type": "event"
    },
    {
      "inputs": [
        {
          "internalType": "address",
          "name": "account",
          "type": "address"
        }
      ],
      "name": "addMinter",
      "outputs": [],
      "stateMutability": "nonpayable",
      "type": "function"
    },
    {
      "inputs": [
        {
          "internalType": "address",
          "name": "",
          "type": "address"
        }
      ],
      "name": "isMinter",
      "outputs": [
        {
          "internalType": "bool",
          "name": "",
          "type": "bool"
        }
      ],
      "stateMutability": "view",
      "type": "function"
    },
    {
      "inputs": [
        {
          "internalType": "address",
          "name": "buyer",
          "type": "address"
        },
        {
          "internalType": "uint256",
          "name": "amount",
          "type": "uint256"
        },
        {
          "internalType": "string",
          "name": "terms",
          "type": "string"
        },
        {
          "internalType": "string",
          "name": "agentInfo",
          "type": "string"
        },
        {
          "internalType": "string",
          "name": "commissionInfo",
          "type": "string"
        },
        {
          "internalType": "string",
          "name": "paymentType",
          "type": "string"
        }
      ],
      "name": "issueAllocation",
      "outputs": [],
      "stateMutability": "nonpayable",
      "type": "function"
    },
    {
      "inputs": [],
      "name": "owner",
      "outputs": [
        {
          "internalType": "address",
          "name": "",
          "type": "address"
        }
      ],
      "stateMutability": "view",
      "type": "function"
    },
    {
      "inputs": [
        {
          "internalType": "address",
          "name": "account",
          "type": "address"
        }
      ],
      "name": "removeMinter",
      "outputs": [],
      "stateMutability": "nonpayable",
      "type": "function"
    }
  ],
  "bytecode": "0x608060405234801561000f575f80fd5b50335f806101000a81548173ffffffffffffffffffffffffffffffffffffffff021916908373ffffffffffffffffffffffffffffffffffffffff1602179055506117cf8061005c5f395ff3fe608060405234801561000f575f80fd5b5060043610610055575f3560e01c80633092afd5146100595780634cd1645c146100755780638da5cb5b14610091578063983b2d56146100af578063aa271e1a146100cb575b5f80fd5b610073600480360381019061006e91906109b0565b6100fb565b005b61008f600480360381019061008a9190610b4a565b610222565b005b610099610446565b6040516100a69190610c52565b60405180910390f35b6100c960048036038101906100c491906109b0565b610469565b005b6100e560048036038101906100e091906109b0565b610590565b6040516100f29190610c85565b60405180910390f35b5f8054906101000a900473ffffffffffffffffffffffffffffffffffffffff1673ffffffffffffffffffffffffffffffffffffffff163373ffffffffffffffffffffffffffffffffffffffff1614610188576040517f08c379a000000000000000000000000000000000000000000000000000000000815260040161017f90610cf8565b60405180910390fd5b5f60015f8373ffffffffffffffffffffffffffffffffffffffff1673ffffffffffffffffffffffffffffffffffffffff1681526020019081526020015f205f6101000a81548160ff0219169083151502179055508073ffffffffffffffffffffffffffffffffffffffff167fe94479a9f7e1952cc78f2d6baab678adc1b772d936c6583def489e524cb6669260405160405180910390a250565b5f8054906101000a900473ffffffffffffffffffffffffffffffffffffffff1673ffffffffffffffffffffffffffffffffffffffff163373ffffffffffffffffffffffffffffffffffffffff1614806102c1575060015f3373ffffffffffffffffffffffffffffffffffffffff1673ffffffffffffffffffffffffffffffffffffffff1681526020019081526020015f205f9054906101000a900460ff165b610300576040517f08c379a00000000000000000000000000000000000000000000000000000000081526004016102f790610d60565b60405180910390fd5b5f73ffffffffffffffffffffffffffffffffffffffff168673ffffffffffffffffffffffffffffffffffffffff160361036e576040517f08c379a000000000000000000000000000000000000000000000000000000000815260040161036590610dc8565b60405180910390fd5b5f85116103b0576040517f08c379a00000000000000000000000000000000000000000000000000000000081526004016103a790610e30565b60405180910390fd5b5f6103ba876105ad565b6103c387610782565b868686866040516020016103dc969594939291906111c8565b60405160208183030381529060405290508673ffffffffffffffffffffffffffffffffffffffff167fca0f5c4e95260cca386a446e6554b30fd638991b929d7516609ba6b945494f8e87836040516104359291906112be565b60405180910390a250505050505050565b5f8054906101000a900473ffffffffffffffffffffffffffffffffffffffff1681565b5f8054906101000a900473ffffffffffffffffffffffffffffffffffffffff1673ffffffffffffffffffffffffffffffffffffffff163373ffffffffffffffffffffffffffffffffffffffff16146104f6576040517f08c379a00000000000000000000000000000000000000000000000000000000081526004016104ed90610cf8565b60405180910390fd5b6001805f8373ffffffffffffffffffffffffffffffffffffffff1673ffffffffffffffffffffffffffffffffffffffff1681526020019081526020015f205f6101000a81548160ff0219169083151502179055508073ffffffffffffffffffffffffffffffffffffffff167f6ae172837ea30b801fbfcdd4108aa1d5bf8ff775444fd70256b44e6bf3dfc3f660405160405180910390a250565b6001602052805f5260405f205f915054906101000a900460ff1681565b60605f602867ffffffffffffffff8111156105cb576105ca610a26565b5b6040519080825280601f01601f1916602001820160405280156105fd5781602001600182028036833780820191505090505b5090505f5b6014811015610759575f8160136106199190611319565b6008610625919061134c565b600261063191906114bc565b8573ffffffffffffffffffffffffffffffffffffffff166106529190611533565b60f81b90505f60108260f81c610668919061156f565b60f81b90505f8160f81c601061067e919061159f565b8360f81c61068c91906115db565b60f81b905061069a82610900565b858560026106a8919061134c565b815181106106b9576106b861160f565b5b60200101907effffffffffffffffffffffffffffffffffffffffffffffffffffffffffffff191690815f1a9053506106f081610900565b856001866002610700919061134c565b61070a919061163c565b8151811061071b5761071a61160f565b5b60200101907effffffffffffffffffffffffffffffffffffffffffffffffffffffffffffff191690815f1a9053505050508080600101915050610602565b508060405160200161076b91906116fd565b604051602081830303815290604052915050919050565b60605f82036107c8576040518060400160405280600181526020017f300000000000000000000000000000000000000000000000000000000000000081525090506108fb565b5f8290505f5b5f82146107f75780806107e09061171e565b915050600a826107f09190611533565b91506107ce565b5f8167ffffffffffffffff81111561081257610811610a26565b5b6040519080825280601f01601f1916602001820160405280156108445781602001600182028036833780820191505090505b5090505f8290505b5f86146108f3576001816108609190611319565b90505f600a80886108719190611533565b61087b919061134c565b876108869190611319565b60306108929190611765565b90505f8160f81b9050808484815181106108af576108ae61160f565b5b60200101907effffffffffffffffffffffffffffffffffffffffffffffffffffffffffffff191690815f1a905350600a886108ea9190611533565b9750505061084c565b819450505050505b919050565b5f600a8260f81c60ff16101561092a5760308260f81c6109209190611765565b60f81b9050610940565b60578260f81c61093a9190611765565b60f81b90505b919050565b5f604051905090565b5f80fd5b5f80fd5b5f73ffffffffffffffffffffffffffffffffffffffff82169050919050565b5f61097f82610956565b9050919050565b61098f81610975565b8114610999575f80fd5b50565b5f813590506109aa81610986565b92915050565b5f602082840312156109c5576109c461094e565b5b5f6109d28482850161099c565b91505092915050565b5f819050919050565b6109ed816109db565b81146109f7575f80fd5b50565b5f81359050610a08816109e4565b92915050565b5f80fd5b5f80fd5b5f601f19601f8301169050919050565b7f4e487b71000000000000000000000000000000000000000000000000000000005f52604160045260245ffd5b610a5c82610a16565b810181811067ffffffffffffffff82111715610a7b57610a7a610a26565b5b80604052505050565b5f610a8d610945565b9050610a998282610a53565b919050565b5f67ffffffffffffffff821115610ab857610ab7610a26565b5b610ac182610a16565b9050602081019050919050565b828183375f83830152505050565b5f610aee610ae984610a9e565b610a84565b905082815260208101848484011115610b0a57610b09610a12565b5b610b15848285610ace565b509392505050565b5f82601f830112610b3157610b30610a0e565b5b8135610b41848260208601610adc565b91505092915050565b5f805f805f8060c08789031215610b6457610b6361094e565b5b5f610b7189828a0161099c565b9650506020610b8289828a016109fa565b955050604087013567ffffffffffffffff811115610ba357610ba2610952565b5b610baf89828a01610b1d565b945050606087013567ffffffffffffffff811115610bd057610bcf610952565b5b610bdc89828a01610b1d565b935050608087013567ffffffffffffffff811115610bfd57610bfc610952565b5b610c0989828a01610b1d565b92505060a087013567ffffffffffffffff811115610c2a57610c29610952565b5b610c3689828a01610b1d565b9150509295509295509295565b610c4c81610975565b82525050565b5f602082019050610c655f830184610c43565b92915050565b5f8115159050919050565b610c7f81610c6b565b82525050565b5f602082019050610c985f830184610c76565b92915050565b5f82825260208201905092915050565b7f43616c6c6572206973206e6f7420746865206f776e65720000000000000000005f82015250565b5f610ce2601783610c9e565b9150610ced82610cae565b602082019050919050565b5f6020820190508181035f830152610d0f81610cd6565b9050919050565b7f43616c6c6572206973206e6f742061206d696e746572000000000000000000005f82015250565b5f610d4a601683610c9e565b9150610d5582610d16565b602082019050919050565b5f6020820190508181035f830152610d7781610d3e565b9050919050565b7f496e76616c6964206275796572206164647265737300000000000000000000005f82015250565b5f610db2601583610c9e565b9150610dbd82610d7e565b602082019050919050565b5f6020820190508181035f830152610ddf81610da6565b9050919050565b7f416d6f756e74206d7573742062652067726561746572207468616e207a65726f5f82015250565b5f610e1a602083610c9e565b9150610e2582610de6565b602082019050919050565b5f6020820190508181035f830152610e4781610e0e565b9050919050565b5f81905092915050565b7f646174613a6170706c69636174696f6e2f6a736f6e2c7b2270223a22476f6c645f8201527f6261636b626f6e642d55534447422d616c6c6f636174696f6e222c226f70223a60208201527f226d696e74222c226275796572223a2200000000000000000000000000000000604082015250565b5f610ed8605083610e4e565b9150610ee382610e58565b605082019050919050565b5f81519050919050565b5f5b83811015610f15578082015181840152602081019050610efa565b5f8484015250505050565b5f610f2a82610eee565b610f348185610e4e565b9350610f44818560208601610ef8565b80840191505092915050565b7f222c22616d6f756e74223a2200000000000000000000000000000000000000005f82015250565b5f610f84600c83610e4e565b9150610f8f82610f50565b600c82019050919050565b7f222c227465726d73223a220000000000000000000000000000000000000000005f82015250565b5f610fce600b83610e4e565b9150610fd982610f9a565b600b82019050919050565b7f222c226167656e74496e666f223a2200000000000000000000000000000000005f82015250565b5f611018600f83610e4e565b915061102382610fe4565b600f82019050919050565b7f222c22636f6d6d697373696f6e496e666f223a220000000000000000000000005f82015250565b5f611062601483610e4e565b915061106d8261102e565b601482019050919050565b7f222c227061796d656e7454797065223a220000000000000000000000000000005f82015250565b5f6110ac601183610e4e565b91506110b782611078565b601182019050919050565b7f222c226c6567616c446973636c6f73757265223a225468697320746f6b656e205f8201527f726570726573656e7473206120636f6e747261637420726967687420746f206960208201527f6e76656e746f72792e2054686973206973206e6f74206120736563757269747960408201527f206f7220646572697661746976652e222c000000000000000000000000000000606082015250565b5f611168607183610e4e565b9150611173826110c2565b607182019050919050565b7f227d0000000000000000000000000000000000000000000000000000000000005f82015250565b5f6111b2600283610e4e565b91506111bd8261117e565b600282019050919050565b5f6111d282610ecc565b91506111de8289610f20565b91506111e982610f78565b91506111f58288610f20565b915061120082610fc2565b915061120c8287610f20565b91506112178261100c565b91506112238286610f20565b915061122e82611056565b915061123a8285610f20565b9150611245826110a0565b91506112518284610f20565b915061125c8261115c565b9150611267826111a6565b9150819050979650505050505050565b611280816109db565b82525050565b5f61129082610eee565b61129a8185610c9e565b93506112aa818560208601610ef8565b6112b381610a16565b840191505092915050565b5f6040820190506112d15f830185611277565b81810360208301526112e38184611286565b90509392505050565b7f4e487b71000000000000000000000000000000000000000000000000000000005f52601160045260245ffd5b5f611323826109db565b915061132e836109db565b9250828203905081811115611346576113456112ec565b5b92915050565b5f611356826109db565b9150611361836109db565b925082820261136f816109db565b91508282048414831517611386576113856112ec565b5b5092915050565b5f8160011c9050919050565b5f808291508390505b60018511156113e2578086048111156113be576113bd6112ec565b5b60018516156113cd5780820291505b80810290506113db8561138d565b94506113a2565b94509492505050565b5f826113fa57600190506114b5565b81611407575f90506114b5565b816001811461141d576002811461142757611456565b60019150506114b5565b60ff841115611439576114386112ec565b5b8360020a9150848211156114505761144f6112ec565b5b506114b5565b5060208310610133831016604e8410600b841016171561148b5782820a905083811115611486576114856112ec565b5b6114b5565b6114988484846001611399565b925090508184048111156114af576114ae6112ec565b5b81810290505b9392505050565b5f6114c6826109db565b91506114d1836109db565b92506114fe7fffffffffffffffffffffffffffffffffffffffffffffffffffffffffffffffff84846113eb565b905092915050565b7f4e487b71000000000000000000000000000000000000000000000000000000005f52601260045260245ffd5b5f61153d826109db565b9150611548836109db565b92508261155857611557611506565b5b828204905092915050565b5f60ff82169050919050565b5f61157982611563565b915061158483611563565b92508261159457611593611506565b5b828204905092915050565b5f6115a982611563565b91506115b483611563565b92508282026115c281611563565b91508082146115d4576115d36112ec565b5b5092915050565b5f6115e582611563565b91506115f083611563565b9250828203905060ff811115611609576116086112ec565b5b92915050565b7f4e487b71000000000000000000000000000000000000000000000000000000005f52603260045260245ffd5b5f611646826109db565b9150611651836109db565b9250828201905080821115611669576116686112ec565b5b92915050565b7f30780000000000000000000000000000000000000000000000000000000000005f82015250565b5f6116a3600283610e4e565b91506116ae8261166f565b600282019050919050565b5f81519050919050565b5f81905092915050565b5f6116d7826116b9565b6116e181856116c3565b93506116f1818560208601610ef8565b80840191505092915050565b5f61170782611697565b915061171382846116cd565b915081905092915050565b5f611728826109db565b91507fffffffffffffffffffffffffffffffffffffffffffffffffffffffffffffffff820361175a576117596112ec565b5b600182019050919050565b5f61176f82611563565b915061177a83611563565b9250828201905060ff811115611793576117926112ec565b5b9291505056fea2646970667358221220f63951b4070237662f1e780f53ccac0d28eebd13eb5c14d70044f27eef7926d864736f6c63430008180033",
  "linkReferences": {},
  "deployedLinkReferences": {},
  "immutableReferences": {},
  "inputSourceName": "project/contracts/GBBAllocationInscription.sol",
  "buildInfoId": "solc-0_8_24-09f8ca428feb8ff0ea5463fd2b2b5516712d66f8"
}